:020000040000fa
:080000000002040000000000f2
:020000040000fa
:04000800aa04000046
:020000040000fa
:04000c00aa04000042
:020000040000fa
:04001000aa0400003e
:020000040000fa
:04001400aa0400003a
:020000040000fa
:04001800aa04000036
:020000040000fa
:04001c00aa04000032
:020000040000fa
:04002000aa0400002e
:020000040000fa
:04002400aa0400002a
:020000040000fa
:04002800aa04000026
:020000040000fa
:04002c00aa04000022
:020000040000fa
:04003000aa0400001e
:020000040000fa
:04003400aa0400001a
:020000040000fa
:04003800aa04000016
:020000040000fa
:04003c00aa04000012
:020000040000fa
:04004000aa0400000e
:020000040000fa
:04004400aa0400000a
:020000040000fa
:04004800aa04000006
:020000040000fa
:04004c00aa04000002
:020000040000fa
:04005000aa040000fe
:020000040000fa
:04005400aa040000fa
:020000040000fa
:04005800aa040000f6
:020000040000fa
:04005c00aa040000f2
:020000040000fa
:04006000aa040000ee
:020000040000fa
:04006400aa040000ea
:020000040000fa
:04006800aa040000e6
:020000040000fa
:04006c00aa040000e2
:020000040000fa
:04007000aa040000de
:020000040000fa
:04007400a0030000e5
:020000040000fa
:04007800aa040000d6
:020000040000fa
:04007c00aa040000d2
:020000040000fa
:04008000aa040000ce
:020000040000fa
:04008400aa040000ca
:020000040000fa
:04008800aa040000c6
:020000040000fa
:04008c00aa040000c2
:020000040000fa
:04009000aa040000be
:020000040000fa
:0400940076040000ee
:020000040000fa
:04009800aa040000b6
:020000040000fa
:04009c00aa040000b2
:020000040000fa
:0400a000c802000092
:020000040000fa
:0400a4006a030000eb
:020000040000fa
:0400a800aa040000a6
:020000040000fa
:0400ac00aa040000a2
:020000040000fa
:0400b000aa0400009e
:020000040000fa
:0400b400aa0400009a
:020000040000fa
:0400b800aa04000096
:020000040000fa
:0400bc00aa04000092
:020000040000fa
:0400c000aa0400008e
:020000040000fa
:0400c400aa0400008a
:020000040000fa
:0400c800aa04000086
:020000040000fa
:0400cc00aa04000082
:020000040000fa
:0400d000aa0400007e
:020000040000fa
:0400d400aa0400007a
:020000040000fa
:0400d800aa04000076
:020000040000fa
:0400dc00aa04000072
:020000040000fa
:0400e000aa0400006e
:020000040000fa
:0400e4009004000084
:020000040000fa
:0400e800aa04000066
:020000040000fa
:0400ec00aa04000062
:020000040000fa
:0400f000aa0400005e
:020000040000fa
:0400f400aa0400005a
:020000040000fa
:0400f800aa04000056
:020000040000fa
:0400fc00aa04000052
:020000040000fa
:04010000aa0400004d
:020000040000fa
:04010400aa04000049
:020000040000fa
:04010800aa04000045
:020000040000fa
:04010c00aa04000041
:020000040000fa
:04011000aa0400003d
:020000040000fa
:04011400aa04000039
:020000040000fa
:04011800aa04000035
:020000040000fa
:04011c00aa04000031
:020000040000fa
:04012000aa0400002d
:020000040000fa
:04012400aa04000029
:020000040000fa
:04012800aa04000025
:020000040000fa
:04012c00aa04000021
:020000040000fa
:04013000aa0400001d
:020000040000fa
:04013400aa04000019
:020000040000fa
:04013800aa04000015
:020000040000fa
:04013c00aa04000011
:020000040000fa
:04014000aa0400000d
:020000040000fa
:04014400aa04000009
:020000040000fa
:04020800aa04000044
:020000040000fa
:04020c00aa04000040
:020000040000fa
:04021000aa0400003c
:020000040000fa
:04021400aa04000038
:020000040000fa
:04021800aa04000034
:020000040000fa
:04021c00aa04000030
:020000040000fa
:04022000aa0400002c
:020000040000fa
:04022400aa04000028
:020000040000fa
:04022800aa04000024
:020000040000fa
:04022c00aa04000020
:020000040000fa
:04023000aa0400001c
:020000040000fa
:04023400aa04000018
:020000040000fa
:04023800aa04000014
:020000040000fa
:04023c00aa04000010
:020000040000fa
:04024000aa0400000c
:020000040000fa
:04024400aa04000008
:020000040000fa
:04024800aa04000004
:020000040000fa
:04024c00aa04000000
:020000040000fa
:04025000aa040000fc
:020000040000fa
:04025400aa040000f8
:020000040000fa
:04025800aa040000f4
:020000040000fa
:04025c00aa040000f0
:020000040000fa
:04026000aa040000ec
:020000040000fa
:04026400aa040000e8
:020000040000fa
:04026800aa040000e4
:020000040000fa
:04026c00aa040000e0
:020000040000fa
:04027000aa040000dc
:020000040000fa
:04027400a0030000e3
:020000040000fa
:04027800aa040000d4
:020000040000fa
:04027c00aa040000d0
:020000040000fa
:04028000aa040000cc
:020000040000fa
:04028400aa040000c8
:020000040000fa
:04028800aa040000c4
:020000040000fa
:04028c00aa040000c0
:020000040000fa
:04029000aa040000bc
:020000040000fa
:0402940076040000ec
:020000040000fa
:04029800aa040000b4
:020000040000fa
:04029c00aa040000b0
:020000040000fa
:0402a000c802000090
:020000040000fa
:0402a4006a030000e9
:020000040000fa
:0402a800aa040000a4
:020000040000fa
:0402ac00aa040000a0
:020000040000fa
:0402b000aa0400009c
:020000040000fa
:0402b400aa04000098
:020000040000fa
:0402b800aa04000094
:020000040000fa
:0402bc00aa04000090
:020000040000fa
:0402c000aa0400008c
:020000040000fa
:0402c400aa04000088
:020000040000fa
:0402c800aa04000084
:020000040000fa
:0402cc00aa04000080
:020000040000fa
:0402d000aa0400007c
:020000040000fa
:0402d400aa04000078
:020000040000fa
:0402d800aa04000074
:020000040000fa
:0402dc00aa04000070
:020000040000fa
:0402e000aa0400006c
:020000040000fa
:0402e4009004000082
:020000040000fa
:0402e800aa04000064
:020000040000fa
:0402ec00aa04000060
:020000040000fa
:0402f000aa0400005c
:020000040000fa
:0402f400aa04000058
:020000040000fa
:0402f800aa04000054
:020000040000fa
:0402fc00aa04000050
:020000040000fa
:04030000aa0400004b
:020000040000fa
:04030400aa04000047
:020000040000fa
:04030800aa04000043
:020000040000fa
:04030c00aa0400003f
:020000040000fa
:04031000aa0400003b
:020000040000fa
:04031400aa04000037
:020000040000fa
:04031800aa04000033
:020000040000fa
:04031c00aa0400002f
:020000040000fa
:04032000aa0400002b
:020000040000fa
:04032400aa04000027
:020000040000fa
:04032800aa04000023
:020000040000fa
:04032c00aa0400001f
:020000040000fa
:04033000aa0400001b
:020000040000fa
:04033400aa04000017
:020000040000fa
:04033800aa04000013
:020000040000fa
:04033c00aa0400000f
:020000040000fa
:04034000aa0400000b
:020000040000fa
:04034400aa04000007
:020000040000fa
:10040000afd920000eff27000e0188000000000079
:10041000000020000000e000020032000001200087
:1004200020028800140007004c0107000000e000d3
:1004300003003a0060a52000010020000200370000
:100440000000200001002000810f70000100320038
:1004500014000700000020000000e000020032004d
:1004600000000200000000006e0902000000000011
:100470000040da000000fe004440a9000000200017
:100480000000e0000300320000002000a00188000e
:100490004440a800000006008a1f78008b1f7800e7
:1004a0000000060091018800800478000000eb0045
:1004b0001a003700e284440032a0b4009905ba0063
:1004c000e284440032a0b4009906ba00e2844400f9
:1004d00032a0b4000006eb00476fde00fd07b2005b
:1004e000636ce10003003a00ebff07000000eb0043
:1004f0000a003700606ce10004003a00005deb0088
:100500008b05e900fdff3e00040037006168e10053
:10051000010032000086eb000b00070019c7ba008b
:100520001905ba000e04e00003003a000a00e000da
:10053000e0ff3a0000000600fe07b2009e018800be
:100540008a047800f5ff3700395dba008b05e900b1
:100550000c003200295dba008b05e900080032006a
:100560000c00e00003003a00e284440032a0b40032
:10057000f5ff370019ddba008b05e900faff3a00f4
:100580008904e800e184440032a0b40000000600c1
:10059000809fbe00821f78003400f8000000200019
:1005a000a00188000000fa0087c0a9003040800048
:1005b0000000e00011003a0020408000b1118000ee
:1005c0000101780080004000a0c0200000804000b1
:1005d000020878002040800080004000a0c0200079
:1005e0000080400090007800e00f2000808f5000d5
:1005f00002003a00100020003040880030408000a7
:100600000000e0002e003200004180000000e00009
:10061000170032002040800080004000a0c0200071
:100620000080400090007800e00f2000808f500094
:100630000f00320020408000b111800001017800dd
:1006400080004000a0c02000008040000208780028
:100650002028ef002040800080004000a0c0200043
:10066000008040001000780010408800070037002c
:1006700020408000b111800001017800800040001e
:10068000a0c02000008040000208780020408000c8
:100690000000e800204088002140800010408000d9
:1006a000808f500006003a000428ef001000200060
:1006b000004188000628ef0010002000e04088007c
:1006c0000080fa003400f9004f0178004f00be00ae
:1006d00000400600809fbe003400f80000002000ab
:1006e000a00188000000fa0087e0a900a066800051
:1006f000104088002140800010408000808f500012
:100700000a003d00204080008000400020cd2000f5
:100710000080400010007800a01188002040800078
:100720000000e80020408800010037000428ef00a6
:100730000080fa003400f9004f00be0000400600bf
:100740003600f800809fbe00829fbe00849fbe00de
:10075000869fbe003400f80000002000a001880041
:100760000200fa008660a900a116800000002200a5
:10077000008060000000e0000e003200a116800042
:1007800000042000008060000000e000090032004a
:10079000a116800000082000008060000000e0003a
:1007a00004003a00804080000000e00001003a00b0
:1007b000da020700a116800000002200008060001d
:1007c0000000e00025003200a11680000004200097
:1007d000008060000000e00020003a00a1168000c8
:1007e00000082000008060000000e0001b003200d4
:1007f00080408000e10f500018003a00ce02070050
:10080000a1408000e00120000101780011000900f2
:100810000280d80080007800400220000088b900e3
:100820000000780090408800a0408000f10f500048
:100830000a003e000000eb00000f7800c202a80092
:10084000010037001e0fe800703821009e0078007c
:10085000808f5000fbff3600c202a900a116800065
:1008600000002200008060000000e0000d00320067
:10087000a116800000042000008060000000e0005d
:1008800008003200a11680000008200000806000ef
:100890000000e00003003a00804080000000e80013
:1008a00080408800a11680000000220000806000c7
:1008b0000000e00005003a00804080000000e000f9
:1008c00002003200770007001028ef000080fa00d5
:1008d0003400f9004f03be004f02be004f01be00be
:1008e0004f00be003600f90000400600801f78006f
:1008f0003400f80000002000a00188000000fa0089
:100900008760a900d04080000000e800d040880047
:100910000080fa003400f9004f0078000040060023
:10092000801f78003400f80000002000a00188003b
:100930000000fa0089e0a900a04080000000e80063
:10094000a04088000080fa003400f9004f007800d1
:10095000004006000040da000000fe000000050034
:020000040000fa
:100960000000fa001a28ef000ec8bf000040e8009f
:100970000ee8b700e180200091407800b0c3b300da
:1009800080cf5000040036000e68ef000dc8bf0095
:100990000040e8000de8b700d180200091407800c9
:1009a000b0c3b30080cf5000040036000d68ef00e4
:1009b0000cc8bf000040e8000ce8b7000cc8bf003e
:1009c000f84f500001003a000c68ef000080fa0078
:1009d000000006000200fa000000eb00000f7800a3
:1009e0002b0037001e0fe800c04080006a00b900ed
:1009f00080007800808220000080400021032000d9
:100a000001087800c04080006a00b90080007800ca
:100a10002082200000804000510120000108780061
:100a2000c04080006a00b900800078004082200049
:100a300000804000e101200001087800c3408000f0
:100a40001e0078006a00b900000178006a18b90039
:100a5000800078006082200000804000020878005a
:100a6000c04080001e01e8006a00b90080007800e4
:100a7000a08220000080400002087800c040800072
:100a80000000e800c040880010002000b04088004e
:100a90001e007800e10f5000d2ff36000080fa00ff
:100aa000000006000000fa00c04080009140800075
:100ab000010178006a00b90080007800808220007f
:100ac0000080400002087800c14080000cc8bf00d0
:100ad0000081fb006a08b9008000780020822000b5
:100ae0000080400002087800c14080000dc8bf00af
:100af0000081fb006a08b900800078004082200075
:100b00000080400002087800c14080000ec8bf008d
:100b10000081fb006a08b900800078006082200034
:100b20000080400002087800c040800081408000c2
:100b3000010178006a00b90080007800a0822000de
:100b40000080400002087800c04080000000e800fb
:100b5000c040880080408000e20f50000300340055
:100b6000b04080000000e800b04088000080fa003b
:100b7000000006000a00fa0066014700000978003c
:100b800068004700010878000000eb00000f7800c3
:100b90008000eb000e80e80001087800220037009a
:100ba0000e80e8001000780000004000e8004700d8
:100bb00091007800808040006400470011087800b0
:100bc0006400470010007800c800dd0064004700a2
:100bd000010878000e80e800100078000000e800ae
:100be00000004000e80047009100780000804000cd
:100bf00090007800640047001000780081004000f9
:100c000064004700010878000e80e80010007800ba
:100c10008080e8000e80e80001087800640047004a
:100c2000100078001e0f400066004700100078009a
:100c3000630050008e80e80091007800810f500022
:100c4000d7ff3e006600470010007800610060009a
:100c5000004078000004e0000d003200680047000a
:100c600010007800ec004000640047001108780094
:100c70006400470010007800c800dd0064004700f1
:100c80000108780064004700100078001e0f400043
:100c90001e0078000080fa00000006000400fa0040
:100ca00060608000a1c02000b2ff070080007800d3
:100cb0000e80e8000108780060608000e90f5000b5
:100cc00008003a00c1608000010f78001e00780023
:100cd0004800dd00000f7800d06080001e0f40004b
:100ce00007003700b1608000010f78001e00780017
:100cf0004800dd00000f7800c06080001e0f40003b
:100d00000e80e800100078009e0f500003003a00ab
:100d1000a0608000f04088000200370070042000ce
:100d2000f04088000080fa00000006000a00fa0087
:100d30008000eb0064004700010878000000eb0031
:100d4000000f78008000eb000e80e80001087800ba
:100d5000506080009066880080608000b0668800e7
:100d600070608000c066880000082000d06688009f
:100d7000a0608000e066880054003700b260800008
:100d80001e0078006a00b9008000780020822000f0
:100d90000080400010007800800f51004a003a00a7
:100da0000e80e80010007800660140001e00780008
:100db0006a00b90080007800208220000080400096
:100dc000900178008200410020cd2000008040008a
:100dd000030878000e80e8001000780067014000ea
:100de0001e0078006a00b900000078008080e800ea
:100df00020822000008040009001780082004100a5
:100e000020cd200000804000030878000e80e8001c
:100e100010007800680140001e0078006a00b900e8
:100e200000007800e40040002082200000804000a4
:100e3000900178008200410020cd20000080400019
:100e4000030878000e80e800100078006901400077
:100e50001e0078006a00b90000007800e60040003b
:100e60002082200000804000900178008200410034
:100e700020cd200000804000030878000e80e800ac
:100e8000100078006a0140001e0078006a00b90076
:100e900000007800e8004000208220000080400030
:100ea000900178008200410020cd200000804000a9
:100eb000030878000e80e80010007800e50040008c
:100ec0000e80e800010878001e0fe800c040800096
:100ed0009e007800808f5000a8ff39000e80e80047
:100ee0001000780068004000a0668800a0668000be
:100ef00021cd20001fff070080007800660047001a
:100f0000010878006600470010007800c800de0085
:100f10006400470001087800660047001000780070
:100f2000c800dd006800470001087800680047003d
:100f300010007800c800de00680047000108780053
:100f4000a06680000080e9008000400020cd2000e5
:100f500000804000e400470011087800a06680008f
:100f60000000e9008000400020cd2000008040000b
:100f7000e8004700110878000080fa000000060031
:100f80000a00fa006601470000097800680047007f
:100f9000010878000000eb00000f7800506080002e
:100fa000906688006600470090007800a16688007f
:100fb00080608000b066880070608000c066880035
:100fc00000082000d0668800660047001000780006
:100fd000e90f50001f003a00a0608000e066880022
:100fe0006800470090007800f166880021cd20005d
:100ff00090002000dffe0700800078000e80e800ef
:10100000010878000e80e800100078004800de003b
:10101000000f78000e80e80010007800c800dd00a6
:101020006400470001087800640047001000780061
:10103000c800de0064004700010878009e007800c8
:1010400001678800640047009000780011678800fd
:101050001f0037006800470090007800e1668800b4
:1010600021cd200080002000c2fe07008000780013
:101070000e80e800010878000e80e800100078007b
:10108000c800dd00640047000108780064004700e4
:1010900010007800c800de006400470001087800f6
:1010a0000e80e80010007800c800de000e80e80026
:1010b000010878000e80e800100f78009e0078008c
:1010c000f16688006400470090007800016788009e
:1010d0000080fa00000006000200fa000000eb00a9
:1010e000000f7800c262a800010037001e0fe80060
:1010f000703821009e007800808f5000fbff360082
:10110000c262a9000080fa00000006000200fa0096
:101110000000eb00000f7800240037001e0078006c
:101120006a00b900800078008082200000804000c2
:101130008000eb00010878001e0078006a00b9000a
:101140008000780020822000008040008000eb00ba
:10115000010878001e0078006a00b900800078005d
:1011600040822000008040008000eb0001087800f1
:101170001e0078006a00b9008000780060822000bc
:10118000008040008000eb00010878001e0078001d
:101190006a00b90080007800a08220000080400032
:1011a0008000eb00010878001e0fe800c0408000be
:1011b0009e007800808f5000d8ff39001628ef007d
:1011c0001828ef000080fa00000006000000fa0076
:1011d000f040800041042000810f500029003200bf
:1011e00041042000810f50000a003c00210420002f
:1011f000810f50001700320021042000810f5000a1
:101200001a003c0011042000810f50000b00320036
:101210003000370061042000810f500022003200ae
:1012200061042000810f5000190035007104200076
:10123000810f50002100320026003700c04080009e
:1012400080007800900020004dff070087e0a80094
:1012500020003700adff0700e102200080002000e1
:1012600047ff070087e0a8001a003700b040800061
:10127000800078009000200041ff070087e0a80070
:1012800014003700a9fe070087e0a800110037000e
:1012900091ff0700e10220008000200038ff0700d6
:1012a00087e0a8000b003700e1022000800020004a
:1012b00033ff070087e0a80006003700f0408000f9
:1012c00080007800800020002dff070087e0a80044
:1012d000000000000080fa00000006000000fa0094
:1012e00040000700bbfd07000100370000000000c0
:1012f000e04080000000e000030032001c28ef0006
:1013000066fe0700b1ff0700d0408000e30f5000e9
:10131000f6ff340092fd0700f5ff37000000fa00e9
:101320002221ef0010002000a04088002de1a8003d
:101330000080fa00000006000000fa002de1a9007c
:101340000080fa00000006000000fa001e21ef00f5
:10135000f10880000003200001007000f008880000
:101360008760a90081058000f0ff28008080600070
:101370000000250001007000800588009760a8002b
:1013800060892900d00888001fe1a8000080fa00c9
:10139000000006000000fa002c21ef006109800027
:1013a000f0fc2f00008060000040a0006009880071
:1013b00089e0a900d1058000f0ff2800808060004e
:1013c0000000250001007000d005880099e0a80009
:1013d00080382100400988002de1a9000080fa0032
:1013e000000006000000fa000cc8bf000dc8bf00d6
:1013f0000e68ef0000f02f000016880018000700ac
:10140000d1ff0700e3ff07000080eb0050198800c0
:101410000080eb00601988000080eb00601b8800f2
:101420008660a90061058000f0ff280080806000d0
:1014300000002600010070006005880061e0a8003f
:101440006260a8006200a8009660a8000080eb001f
:1014500090168800c022ef000080fa00000006000d
:101460000000fa0031e2a9003162a8008111800079
:1014700090ff2f000080600080118800100820007d
:10148000c0118800004024009005880087c0a90092
:1014900097c0a80031e2a8003342a80087e0a90065
:0c14a00097e0a8000080fa0000000600a1
:020000040000fa
:1014ac00000800000c0000000000000020080000f4
:1014bc000200000002000000010000000c08000007
:1014cc000a0000000000000022080000780500005f
:1014dc0000000000160800000a00000000000000d8
:0414ec0000000000fc
:020000040000fa
:0200000401f009
:04000000ffffff00ff
:020000040000fa
:0200000401f009
:04000400ffffff00fb
:020000040000fa
:0200000401f009
:04000800ffffff00f7
:020000040000fa
:0200000401f009
:04000c00fbff0000f6
:020000040000fa
:0200000401f009
:04001000bdff000030
:020000040000fa
:0200000401f009
:04001400ffff0000ea
:020000040000fa
:0200000401f009
:04001800ffff0000e6
:020000040000fa
:0200000401f009
:04001c00dfff000002
:00000001FF
